:020000040000FA
:100000000C945D000C9485000C9485000C94850084
:100010000C9485000C9485000C9485000C9485004C
:100020000C9485000C9485000C9485000C9485003C
:100030000C9485000C9485000C9485000C9485002C
:100040000C946B130C9485000C9439130C941313BB
:100050000C9485000C9485000C9485000C9485000C
:100060000C94B5130C9485000000000025002800B6
:100070002B000000000023002600290004040404D3
:100080000404040402020202020203030303030342
:10009000010204081020408001020408102001021F
:1000A00004081020000000080002010000030407FB
:1000B0000000000000000000D41411241FBECFEF88
:1000C000D8E0DEBFCDBF11E0A0E0B1E0EAE1F4E3AB
:1000D00002C005900D92AC35B107D9F725E0ACE52B
:1000E000B1E001C01D92A538B207E1F710E0CDE5FF
:1000F000D0E004C02197FE010E94051ACC35D1073B
:10010000C9F70E948D150C940B1A0C9400000895E9
:100110000895AF92BF92CF92DF92EF92FF920F932A
:100120001F93CF93DF936C017B018B01040F151F8D
:10013000EB015E01AE18BF08C017D10759F06991F5
:10014000D601ED91FC910190F081E02DC601099559
:10015000892B79F7C501DF91CF911F910F91FF9006
:10016000EF90DF90CF90BF90AF900895FC01538D3A
:10017000448D252F30E0842F90E0821B930B541781
:1001800010F0CF96089501970895FC01918D828D0E
:10019000981761F0A28DAE0FBF2FB11D5D968C91A7
:1001A000928D9F5F9F73928F90E008958FEF9FEFE6
:1001B0000895FC01918D828D981731F0828DE80FA2
:1001C000F11D858D90E008958FEF9FEF0895FC015C
:1001D000918D228D892F90E0805C9F4F821B910929
:1001E0008F739927089581E594E00E94E70021E04C
:1001F000892B09F420E0822F089580E090E0892B7C
:1002000029F00E94F30081110C9400000895FC0174
:10021000A48DA80FB92FB11DA35ABF4F2C91848D67
:1002200090E001968F739927848FA689B7892C93C4
:10023000A089B1898C91837080648C93938D848D17
:10024000981306C00288F389E02D80818F7D80831A
:100250000895EF92FF920F931F93CF93DF93EC01DA
:1002600081E0888F9B8D8C8D98131AC0E889F9895D
:10027000808185FF15C09FB7F894EE89FF89608360
:10028000E889F98980818370806480839FBF81E0E1
:1002900090E0DF91CF911F910F91FF90EF90089523
:1002A000F62E0B8D10E00F5F1F4F0F731127E02EFE
:1002B0008C8D8E110CC00FB607FCFACFE889F98936
:1002C000808185FFF5CFCE010E940701F1CFEB8D34
:1002D000EC0FFD2FF11DE35AFF4FF0829FB7F8940A
:1002E0000B8FEA89FB8980818062CFCFCF93DF9328
:1002F000EC01888D8823B9F0AA89BB89E889F9893E
:100300008C9185FD03C0808186FD0DC00FB607FC72
:10031000F7CF8C9185FFF2CF808185FFEDCFCE01A5
:100320000E940701E9CFDF91CF910895833081F0DA
:1003300028F4813099F08230A9F008958730A9F02F
:100340008830C9F08430B1F4809180008F7D03C083
:10035000809180008F7780938000089584B58F7797
:1003600084BD089584B58F7DFBCF8091B0008F77D9
:100370008093B00008958091B0008F7DF9CF1F93D6
:10038000CF93DF93282F30E0F901EC55FF4F849194
:10039000F901E057FF4FD491F901E458FF4FC491A0
:1003A000CC23A9F0162F81110E949601EC2FF0E0CA
:1003B000EE0FFF1FE859FF4FA591B4918FB7F89446
:1003C000EC91111108C0D095DE23DC938FBFDF9133
:1003D000CF911F910895DE2BF8CF3FB7F89480910D
:1003E000170490911804A0911904B0911A0426B52D
:1003F000A89B05C02F3F19F00196A11DB11D3FBF5D
:10040000BA2FA92F982F8827BC01CD01620F711D2B
:10041000811D911D42E0660F771F881F991F4A9525
:10042000D1F708958F929F92AF92BF92CF92DF92B1
:10043000EF92FF926B017C010E94ED014B015C0188
:10044000C114D104E104F104B9F00E94ED0168196E
:1004500079098A099B09683E73408105910580F3FB
:1004600021E0C21AD108E108F10888EE880E83E085
:10047000981EA11CB11CE4CFFF90EF90DF90CF90AD
:10048000BF90AF909F908F9008952FB7F894609190
:1004900013047091140480911504909116042FBFD9
:1004A000089520910C02211109C021E020930C0233
:1004B0003091EE042091EF043CBD2DBD60E0FC01C5
:1004C00084810C94BF0161E0FC0184810E94BF0122
:1004D00080910C02811110920C0208958EBD0000D3
:1004E0000DB407FEFDCF8EB508958FEF0C946E020C
:1004F0000F931F93CF93DF93EC010E9445028B0172
:100500000E9475028F3F69F00E944502601B710BCB
:100510006C177D07A8F380E0DF91CF911F910F91B9
:10052000089581E0F9CFCF92DF92EF92FF920F937F
:100530001F93CF93DF93EC01162F69017A018E810F
:10054000882389F08F8198859C012F5F3F4F3887E2
:100550002F838230924018F40E947502F3CFCE01AF
:100560000E9463021E82CE010E9451028CE291E041
:100570000E947802812F80640E946E0208E110E0E0
:10058000D701C601002E04C0B695A795979587950B
:100590000A94D2F70E946E0208501109083F8FEFAB
:1005A000180771F78FEF0E946E0210E00E9475022B
:1005B0008A8787FF04C01F3F11F01F5FF7CFDF91CD
:1005C000CF911F910F91FF90EF90DF90CF90089502
:1005D000CF92DF92EF92FF920F93CF93DF93EC01D4
:1005E000690182E1411551056105710599F08B851D
:1005F000833039F089E0440F551F661F771F8A95B5
:10060000D1F79A01AB0168E1CE010E9493028823E1
:1006100019F084E08D832DC08EEF0E946E0276016A
:100620008EEFD81AF70181917F010E946E02EC14BF
:10063000FD04C1F78FEF0E946E028FEF0E946E02E1
:100640000E9475028A878F71853071F4011116C07E
:10065000CE010E94630281E0DF91CF910F91FF9064
:10066000EF90DF90CF90089581E18D83CE010E94BD
:100670006302CE010E94630280E0EECF88E592E043
:100680000E947802811102C085E1C4CF20E030E0F1
:10069000A9016DE0CE010E949302882311F084E14C
:1006A000B9CF0E9475028111FACFD2CF0F9340913A
:1006B0000E0250910F0260911002709111024115CB
:1006C00051056105710589F0082F22E132E090E0C3
:1006D00080E00E94E802882349F010920E021092F6
:1006E0000F02109210021092110281E00F910895F2
:1006F0000F93CF93C82F80910D02811105C0C1E0E7
:100700008C2FCF910F9108954091000150910101DC
:1007100060910201709103010C2F22E132E090E020
:1007200080E00E94E802811102C0C0E0E9CFCC2342
:1007300031F381E00E9456038823B9F310920D0231
:10074000DFCFAF92BF92CF92DF92EF92FF921F93D3
:10075000CF93DF936B017C01142F80910001909166
:100760000101A0910201B09103018C159D05AE0518
:10077000BF0509F4ADC081E00E9478038823E1F150
:10078000809106008823A1F08091000090910100E3
:10079000A0910200B0910300C816D906EA06FB0634
:1007A00039F48091070090910800892B09F44FC01B
:1007B000C0920000D0920100E0920200F09203008B
:1007C00080910B00A7019601833039F099E0220F48
:1007D000331F441F551F9A95D1F761E190E080E0E7
:1007E0000E949302882391F083E08093050090E0BB
:1007F00080E00E94630280E0DF91CF911F91FF9023
:10080000EF90DF90CF90BF90AF9008950E94450287
:10081000EB010E94750280930A008F3F79F40E94D9
:1008200045026C1B7D0B6D32714098F38FE0809315
:10083000050090E080E00E946302D9CF8E3FC1F5B1
:10084000109208001092070081E080930600C2E138
:10085000D2E082E1A82E84E0B82E0E94750289932E
:10086000AC16BD06D1F780910700909108009E5FFD
:10087000909308008093070020910900222319F02B
:1008800081159240E8F0809106008823C9F080919C
:100890000700909108009C012F5F3F4F30930800A4
:1008A000209307008230924028F40E947502EFCF17
:1008B0008DE0BDCF90E080E00E94630210920600C0
:1008C000C0920001D0920101E0920201F092030176
:1008D00040910D02412B40930D0281E08DCF4F924C
:1008E0005F926F927F928F929F92AF92BF92CF92C0
:1008F000DF92EF92FF920F931F93CF93DF93EC0160
:10090000423051056105710590F480E0DF91CF918F
:100910001F910F91FF90EF90DF90CF90BF90AF901D
:100920009F908F907F906F905F904F9008958985F2
:100930009A85AB85BC850196A11DB11D84179507CD
:10094000A607B70710F3CB88DC88ED88FE888F896F
:10095000803109F042C0BB27A72F962F852F480171
:1009600059012A013B01C80ED91EEA1EFB1E8091C7
:10097000000190910101A0910201B0910301C816FC
:10098000D906EA06FB0699F58F898031C1F5B301D6
:10099000A201552766277727440F551F4E5E5D4FEE
:1009A000FA019182808280910D02816080930D0214
:1009B0008A89823080F08D819E81AF81B8858C0DCF
:1009C0009D1DAE1DBF1D80930E0290930F02A0933C
:1009D0001002B093110281E099CFDB01CA01E7E078
:1009E000B695A79597958795EA95D1F7B8CF40E04A
:1009F000C701B6010E94A1038111C6CF86CFB30102
:100A0000A2014F77552766277727440F551F440FBC
:100A1000551F4E5E5D4FFA0180829182A282B382A1
:100A2000C2CF8F929F92AF92BF92CF92DF92EF92FE
:100A3000FF920F931F93CF93DF93FC0181859285E3
:100A4000A385B4850196A11DB11D84179507A6073E
:100A5000B70770F480E0DF91CF911F910F91FF9065
:100A6000EF90DF90CF90BF90AF909F908F900895C0
:100A700083889488A588B6888789803189F5BB27C3
:100A8000A72F962F852FE9016A017B018F01BC01F9
:100A9000CD01680D791D8A1D9B1D809000019090ED
:100AA0000101A0900201B090030186169706A806E6
:100AB000B90601F5F8018789803111F5DD24EE24AE
:100AC000FF24F601EE0FFF1FEE5EFD4F8081918146
:100AD000B0E0A0E088839983AA83BB8381E0BBCF89
:100AE000DB01CA01C7E0B695A79597958795CA958A
:100AF000D1F7C9CF40E00E94A1038111DBCFAACF7B
:100B0000E894C7F8DD24EE24FF24F601EE0FFF1F62
:100B1000EE0FFF1FEE5EFD4F80819181A281B381B8
:100B2000BF70D8CF8F929F92AF92BF92CF92DF9239
:100B3000EF92FF920F931F93CF93DF93EC018D8180
:100B400081110EC080E0DF91CF911F910F91FF9036
:100B5000EF90DF90CF90BF90AF909F908F900895CF
:100B60000B891C892D893E8904171507260737072D
:100B700048F34A015B01823031F48A869B86AC8659
:100B8000BD8681E0E0CF81149104A104B10449F451
:100B90001E821F82188619861A861B861C861D8651
:100BA000F0CF0A851B852C853D85EB8DFC8D8585D9
:100BB00090E00996B901A8014150510961097109F4
:100BC000082E04C076956795579547950A94D2F7F5
:100BD00075016401E1E0CE1AD108E108F10804C012
:100BE000F694E794D794C7948A95D2F7C416D5069D
:100BF000E606F70620F0012B022B032B11F58F8957
:100C0000988DA98DBA8D8E839F83A887B9878E0111
:100C10000A5F1F4FC114D104E104F10409F4ADCF00
:100C20004E815F816885798598018B8D9C8D0E94AE
:100C3000110591E0C91AD108E108F1088111EACF44
:100C400081CFC41AD50AE60AF70AE1CF3F924F9244
:100C50005F926F927F928F929F92AF92BF92CF924C
:100C6000DF92EF92FF920F931F93CF93DF93CDB755
:100C7000DEB72C970FB6F894DEBF0FBECDBF5C0178
:100C8000DC015B968D909C905C9716964D905D90E4
:100C90006D907C901997411451046104710409F41A
:100CA00068C0BFEF4B1A5B0A6B0A7B0A312CF40158
:100CB00081859285A385B4859C01AD012F5F3F4F4F
:100CC0004F4F5F4F29873A874B875C8773016201DB
:100CD0001D821E821F821886F40181859285A3855C
:100CE000B4852D813E814F815885281739074A07E1
:100CF0005B0708F056C089859A85AB85BC858C1545
:100D00009D05AE05BF0550F482E0C82ED12CE12C24
:100D1000F12C92E0492E512C612C712C9E012F5FF9
:100D20003F4FB701A601C4010E9411058823C9F1F4
:100D300089819A81AB81BC81892B8A2B8B2B09F10C
:100D4000260137019FEF491A590A690A790A2D814C
:100D50003E814F8158852F5F3F4F4F4F5F4F2D830F
:100D60003E834F8358873FEFC31AD30AE30AF30A3F
:100D7000B3CFF40140805180628073803324339478
:100D800096CFC414D504E604F70409F70FEF1FEF5C
:100D90002FEF3FE0B701A601C4010E946F0481114B
:100DA00019C080E02C960FB6F894DEBF0FBECDBF01
:100DB000DF91CF911F910F91FF90EF90DF90CF9037
:100DC000BF90AF909F908F907F906F905F904F906B
:100DD0003F900895D50116964D915D916D917C914E
:100DE0001997411551056105710539F09701860183
:100DF000C4010E946F048823A1F2D5011696CD92FA
:100E0000DD92ED92FC921997332051F0D701C60183
:100E10000196A11DB11DF40180839183A283B38348
:100E2000F5018789908DA18DB28D892B8A2B8B2B13
:100E300039F48481C78AD08EE18EF28E80688483F3
:100E4000F50184818062848381E0ACCF1F93CF93CE
:100E5000DF93EC01162F8C8187FF2AC06E857F857A
:100E60008889998941E00E94A103882361F1EA8978
:100E700080E2E89FF0011124EE5EFD4F309719F1FA
:100E80008D81823040F48B899C89AD89BE89848FA5
:100E9000958FA68FB78F8F89988D938F828F8F892B
:100EA000988DA98DBA8DB58BA48B8C818F778C830F
:100EB000111103C08C818F7E8C83812FDF91CF91A4
:100EC0001F910C94780380E0DF91CF911F910895DA
:100ED0001F93CF93DF93EC018D81813031F090E04F
:100EE00080E0DF91CF911F9108958C8181FFF7CF32
:100EF00082FD1BC090E080E00E9451020E947502BA
:100F0000182F90E080E00E9463021F3F41F78C8120
:100F100085FF1EC08D81882321F060E0CE010E94F4
:100F200026078C818F7D8C83DACF4B895C896D8914
:100F30007E898A859B85AC85BD8584179507A60724
:100F4000B707C1F2CE010E9492058111D3CFC7CF5E
:100F500040910E0250910F026091100270911102A7
:100F6000452B462B472B21F080E00E945603B7CF3C
:100F700080618C832A853B85317080E092E0821B02
:100F8000930BAFCF9F92AF92BF92CF92DF92EF922F
:100F9000FF920F931F93CF93DF9300D000D01F9247
:100FA000CDB7DEB78C016D83DC0115968C9115975A
:100FB000813009F0B9C014968C9181FFB5C082FDD3
:100FC0009FC0D8015B96ED91FC915C971A96AD900D
:100FD000BD90CD90DC901D9794809A94B601A501A8
:100FE00089E076956795579547958A95D1F794222C
:100FF000B1E0BB22992009F49FC0D8015B96ED9126
:10100000FC915C971696CD90DD90ED90FC90199731
:10101000B2E0CB1AD108E108F108858504C0CC0CF8
:10102000DD1CEE1CFF1C8A95D2F74685578560892A
:101030007189C40ED51EE61EF71EC90CD11CE11C19
:10104000F11CA114B10409F00AC1F80142855385CD
:101050006485758583899489A589B6894817590758
:101060006A077B0708F4FBC081E00E9478038823AD
:1010700009F45AC0C0920001D0920101E09202012D
:10108000F092030180910D02816080930D02F501C1
:10109000EE5EFD4F8D818083F80182859385A48566
:1010A000B5850196A11DB11D82879387A487B58759
:1010B0004389548965897689481759076A077B07E8
:1010C00038F42481838B948BA58BB68B2068248382
:1010D000D80114968C9183FD9FC081E090E00F9021
:1010E0000F900F900F900F90DF91CF911F910F9164
:1010F000FF90EF90DF90CF90BF90AF909F900895BA
:10110000F801438954896589768982859385A48508
:10111000B585481759076A077B0709F452CFC801FC
:101120000E94920581114DCF81E090E0D801139685
:101130009C938E93129749C0D80116964D915D915C
:101140006D917C911997A114B10409F071C04115FA
:1011500051056105710589F557968D919D910D9009
:10116000BC91A02D0097A105B10509F04FC0C801A1
:101170000E9426068823C1F2D8015B96ED91FC916E
:101180005C971696CD90DD90ED90FC901997B2E0AB
:10119000CB1AD108E108F108858504C0CC0CDD1C10
:1011A000EE1CFF1C8A95D2F74685578560897189A8
:1011B000C40ED51EE61EF71E48CF9E012F5F3F4F7F
:1011C000CF010E941105811103C090E080E087CF1C
:1011D00089819A81AB81BC81F801238D348DF9011D
:1011E000278948EF5FEF60E070E0203121F048EFA1
:1011F0005FEF6FEF7FE084179507A607B70730F022
:10120000C8010E9426068111F8CE8ECFF801868390
:101210009783A087B187F1CEF8018581882309F4EF
:1012200083CF61E0C8010E942607811156CF7CCF91
:101230006A017B01B2E0CB1AD108E108F10885858B
:1012400004C0CC0CDD1CEE1CFF1C8A95D2F7468531
:10125000578560897189C40ED51EE61EF71E41E0D0
:10126000C701B6010E94A103811111CF5DCF08957E
:101270002091C201260F3327331F21323105ECF4B0
:101280002091E601FC0190E080E0243069F082E0EA
:101290000895A091C2012191AC014E555E4FA40F5B
:1012A000B52FB11D2C930196861798F38091C2013A
:1012B000680F6093C20180E0089581E00895109264
:1012C000E60181E08093E8011092E70161E082E1AC
:1012D0000E94BF0161E083E10E94BF01E9EBF0E001
:1012E00080818E7F808380818D7F808388E480935E
:1012F000B80085E48093BC000895CF93DF9391E01C
:101300009093A1018823B9F0C091B800D091BA00A0
:101310008091BC008A7B8093BC0060E082E10E94E7
:10132000BF0160E083E10E94BF010E945F09D0938A
:10133000BA00C093B800DF91CF9108950895E0916D
:10134000200480911F04E81730F4F0E0E458FE4FC9
:10135000808190E008958FEF9FEF08959091200491
:1013600080911F042FEF3FEF981748F4E92FF0E02A
:10137000E458FE4F208130E09F5F90932004C90124
:10138000089580911F0490912004891B990B089562
:10139000CF92DF92EF92FF920F931F93CF93DF9341
:1013A0007C01CB018A0120915004222389F0EB01BA
:1013B0006B01C40ED51ECC15DD0569F06991D7010E
:1013C000ED91FC910190F081E02DC7010995F3CFDB
:1013D000642F0E943809C801DF91CF911F910F91AE
:1013E000FF90EF90DF90CF900895CF93DF931F92FF
:1013F000CDB7DEB76983209150042223F9F0209104
:101400004D04203258F021E030E0FC013383228388
:1014100090E080E00F90DF91CF91089580914E048D
:10142000E82FF0E0E45AFE4F998190838F5F80931C
:101430004E0480934D0481E090E0ECCF61E0CE015A
:1014400001960E943809F7CFCF92DF92EF92FF9278
:101450000F931F93CF93DF93D0914D0481E0D1324E
:1014600008F09CC0C0914F040E94ED016B017C010B
:101470008091E60181116CC082E08093E60181E0F9
:101480008093E8018FEF8093E50110920A02D093D8
:101490000902ACE5B1E0E9EEF1E080E0D8138DC0DF
:1014A00010920B0280910B02CC0FC82BC0930B0241
:1014B0008091E701813009F084C01092E7010E9419
:1014C000ED016B017C0180910B028093BB00809148
:1014D0009D0190919E01A0919F01B091A001892B47
:1014E0008A2B8B2BA1F00E94ED0100919D011091A0
:1014F0009E0120919F013091A0016C197D098E09F8
:101500009F09061717072807390708F442C080917A
:10151000BC0083FDD8CF85EC8093BC000E94ED0118
:101520006B017C018091E601823009F44CC080910E
:10153000E5018F3F09F469C08091E501803209F42B
:1015400066C08091E501803309F463C084E026C061
:1015500080919D0190919E01A0919F01B091A00169
:10156000892B8A2B8B2B09F483CF0E94ED010091EC
:101570009D0110919E0120919F013091A0016C1955
:101580007D098E099F09061717072807390708F0F4
:101590006FCF80919C010E947D0985E010924E04DE
:1015A00010924D0410925004DF91CF911F910F9132
:1015B000FF90EF90DF90CF9008959D9191938F5F72
:1015C0006DCF85EEA9CF80919D0190919E01A09154
:1015D0009F01B091A001892B8A2B8B2B09F4A2CFFC
:1015E0000E94ED0100919D0110919E0120919F01AB
:1015F0003091A0016C197D098E099F090617170704
:101600002807390708F08ECFC4CF80E0C7CF82E02B
:10161000C5CF83E0C3CF90E080E00895DC01ED9179
:10162000FC910190F081E02D0994FC0101900020D3
:10163000E9F73197AF01481B590BBC0181E594E0F4
:101640000C9489008F929F92AF92BF920F931F9339
:10165000CF93DF93CDB7DEB7A1970FB6F894DEBF77
:101660000FBECDBF19A2423008F44AE08E010F5DD3
:101670001F4F842E912CB12CA12CA50194010E9406
:10168000E319E62FB901CA01EA30F4F4E05DD801AC
:10169000EE938D01232B242B252B79F790E080E00E
:1016A000109719F0CD010E94150BA1960FB6F89472
:1016B000DEBF0FBECDBFDF91CF911F910F91BF90C5
:1016C000AF909F908F900895E95CE1CF4F925F9229
:1016D0006F927F928F929F92AF92BF92CF92DF9242
:1016E000EF92FF920F931F93CF936B017C01742EA7
:1016F000AC019B010E94DE19882399F084E391E0FC
:10170000CF911F910F91FF90EF90DF90CF90BF90FE
:10171000AF909F908F907F906F905F904F900C94C0
:10172000150B46015701E894B7F82FEF3FEF4FE74D
:101730005FE7C501B4010E94DE1981110DC02FEFD2
:101740003FEF4FE75FE7C501B4010E941418181678
:101750001CF488E391E0D4CF2FEF3FEF4FE75FE435
:10176000C701B6010E946C1918161CF48CE391E0B5
:10177000C7CF2FEF3FEF4FE75FECC701B6010E94E5
:10178000141887FDF3CF20E030E0A901C701B601AE
:101790000E94141810E000E087FF0AC06DE281E5A6
:1017A00094E00E9429018C01F7FAF094F7F8F09484
:1017B000C0E060E070E080E09FE37C1641F020E054
:1017C00030E040E251E40E941918CF5FF6CFA70144
:1017D00096010E94A8172B013C010E948B184B0117
:1017E0005C014AE00E94220B7C01E00EF11ECC233A
:1017F000C1F1C501B4010E94BA189B01AC01C3013B
:10180000B2010E94A7174B015C016EE281E594E0F2
:101810000E942901E80EF91EC15018F120E030E0C5
:1018200040E251E4C501B4010E9471192B013C0151
:101830000E948B184B01B12CA12C4AE0C501B401C8
:101840000E94220BE80EF91EC501B4010E94BA18CD
:101850009B01AC01C301B2010E94A7174B015C01BF
:10186000DBCFC701CF911F910F91FF90EF90DF90D9
:10187000CF90BF90AF909F908F907F906F905F9030
:101880004F900895CF92DF92EF92FF920F931F93A4
:10189000CF93DF93D62FC42F0E94ED016B017C0103
:1018A0008091E601811168C0C13208F0C0E281E098
:1018B0008093E6018093E8019FEF9093E5011092F9
:1018C0000A029C0F9093090280930B0280910B02F5
:1018D000DD0FD82BD0930B028091E701813009F006
:1018E0007FC01092E7010E94ED016B017C018091A5
:1018F0000B028093BB0080919D0190919E01A0916D
:101900009F01B091A001892B8A2B8B2BA1F00E9403
:10191000ED0100919D0110919E0120919F01309158
:10192000A0016C197D098E099F0906171707280762
:10193000390708F442C08091BC0083FDD8CF85EC04
:101940008093BC000E94ED016B017C018091E60157
:10195000813009F447C080910A028C1710F4C091BD
:101960000A02E9EEF1E0ACE7B1E080E08C1751F15A
:1019700091919D938F5FFACF80919D0190919E01EF
:10198000A0919F01B091A001892B8A2B8B2B09F488
:1019900087CF0E94ED0100919D0110919E01209141
:1019A0009F013091A0016C197D098E099F090617CE
:1019B00017072807390708F073CF80919C010E9410
:1019C0007D09C0E010922004C0931F048C2FDF918A
:1019D000CF911F910F91FF90EF90DF90CF900895DE
:1019E00085EEAECF80919D0190919E01A0919F01C7
:1019F000B091A001892B8A2B8B2B09F4A7CF0E94D1
:101A0000ED0100919D0110919E0120919F01309167
:101A1000A0016C197D098E099F0906171707280771
:101A2000390708F093CFC9CFA0918305B091840501
:101A30009091490521E02093500490934F04109217
:101A40004E0410924D04ED91FC9111970190F0819C
:101A5000E02D682FCD010995019711F08FEF0895C2
:101A600080918305909184050E94240A8111F6CF0C
:101A700041E06091490580918305909184050E9421
:101A8000420C813059F78091830590918405DC01E7
:101A9000ED91FC910284F385E02D09950895BF92A4
:101AA000CF92DF92EF92FF920F931F93CF93DF932A
:101AB000E82E6B0180918305909184052091490562
:101AC00031E03093500420934F0410924E04109252
:101AD0004D0460E570E00E940E0B019769F0FF2451
:101AE000FA948F2DDF91CF911F910F91FF90EF907E
:101AF000DF90CF90BF9008950E2D10E0B801660FD3
:101B0000771F660F771F7727809183059091840553
:101B10000E940E0BEC01019711F7809183059091C3
:101B200084050E94240A8111DACF43E060914905BF
:101B300080918305909184050E94420C833079F650
:101B40008091830590918405DC01ED91FC910084E6
:101B5000F185E02D0995892B11F2809183059091F3
:101B60008405DC01ED91FC910284F385E02D09955B
:101B7000F82E8091830590918405DC01ED91FC9114
:101B80000084F185E02D0995892B09F4A8CF809177
:101B9000830590918405DC01ED91FC910284F3852D
:101BA000E02D0995B82E8091830590918405DC0184
:101BB000ED91FC910084F185E02D0995892B09F4C4
:101BC0008ECF8091830590918405DC01ED91FC918D
:101BD0000284F385E02D099520E03B2D282BF601AA
:101BE00031832083F2E0FE1508F47BCF000F111F34
:101BF000F801E35BFA4F3183208301C0CC0FEA94F4
:101C0000EAF7C09580914C05C823C0934C0569CF75
:101C10002F923F924F925F926F927F928F929F92FC
:101C2000AF92BF92CF92DF92EF92FF920F931F93EA
:101C3000CF93DF93CDB7DEB767970FB6F894DEBFCB
:101C40000FBECDBF80914C058823A1F0F12CE12C73
:101C500080914C0590E00E2C02C0959587950A94D2
:101C6000E2F780FD87C12FEFE21AF20A33E0E316B4
:101C7000F10471F78FE30E94140D8F8B80914A0558
:101C800090914B0597FD81C18BE599E00197F1F7A4
:101C9000E0914A05F0914B05FF27AF014C555F4F8E
:101CA0009F0120573F4FBF0164587F4FFA01849135
:101CB000F901F490FB01E490EE20C1F381110E9440
:101CC0009601EE2DF0E0EE0FFF1FEE58FF4FA591AD
:101CD000B4918C91F822E1F2809183059091840572
:101CE0002091490531E03093500420934F04109225
:101CF0004E0410924D04DC01ED91FC910190F081B5
:101D0000E02D6FE40995019709F498C1BFEFBC8BF2
:101D100020914D0530914E05F90184E0F695E79547
:101D20008A95E1F7E770809151059091520535E071
:101D3000969587953A95E1F7682F63706E878F7354
:101D400090E0AC015595479555954795A42FA37004
:101D5000AF87AC0174E0559547957A95E1F7598BBB
:101D6000488B8091500582FB882780F92F702C309A
:101D700009F4B9C18090730590907405A090750521
:101D8000B0907605209177053091780540917905DE
:101D900050917A052A873B874C875D8734E0E39F23
:101DA000F0011124EB5BFA4FC684D784E088F188F8
:101DB000882309F4A9C1B80190E080E00E94BA1814
:101DC00020E030E040E057E40E94A717A50194010D
:101DD0000E947119A70196010E9471192B013C0103
:101DE00001E010E0B8010E8402C0660F771F0A946C
:101DF000E2F7072E000C880B990B0E94BC189B0180
:101E0000AC01C301B2010E9471192B013C014A8946
:101E10005B89BA0190E080E00E94BA1820E030E0CF
:101E200040E057E40E94A717A50194010E94711990
:101E3000A70196010E9471194B015C01B8010F8442
:101E400002C0660F771F0A94E2F7072E000C880B7A
:101E5000990B0E94BC189B01AC01C501B4010E9402
:101E600071194B015C01B10190E080E00E94BA1849
:101E700020E030E040E057E40E94A7172A853B8528
:101E80004C855D850E947119A70196010E94711908
:101E90006B017C01B801088802C0660F771F0A94A5
:101EA000E2F7072E000C880B990B0E94BC189B01CF
:101EB000AC01C701B6010E9471196B017C014D890B
:101EC0005E89BA0190E080E00E94BA1820E034EA0E
:101ED00044E357E40E94A7172DEC3CEC44E352E4A2
:101EE0000E94191820E030E048EC51E40E94A81745
:101EF00060933D0470933E0480933F0490934004AC
:101F0000409241045092420460924304709244040F
:101F10008092450490924604A0924704B0924804EF
:101F2000C0924904D0924A04E0924B04F0924C04CF
:101F30008F898295817081959C89929591709195F8
:101F4000892B67960FB6F894DEBF0FBECDBFDF9129
:101F5000CF911F910F91FF90EF90DF90CF90BF90A6
:101F6000AF909F908F907F906F905F904F903F9039
:101F70002F900895B701660F771F635B7A4F8E2D00
:101F80000E944F0D84FF6FCE75CEC0905105D0904A
:101F90005205C60196958795969587958770EE248C
:101FA000E394F12C970102C0220F331F8A95E2F7C8
:101FB000C9010296BC01660F771F680F791F8C2D2F
:101FC000837002C0660F771F8A95E2F7072E000C18
:101FD000880B990B0E94BC182FE632E143E85DE3C1
:101FE0000E9471194B015C018D2D86958695869511
:101FF0008370B70102C0660F771F8A95E2F7072E3C
:10200000000C880B990B0E94BC1826EA3BE944E4BB
:102010005EE30E9471199B01AC01C501B4010E94ED
:10202000A81726E636E646EA5FE30E9471190E9489
:102030008B1890E080E00E9412024ECE80918305C2
:10204000909184050E94240A811160CE49E060913C
:10205000490580918305909184050E94420C893046
:1020600019F0EFEFEC8B54CE9E012F5F3F4F7901BB
:102070006E013AE0C30ED11C8091830590918405D6
:10208000DC01ED91FC910084F185E02D0995892B0F
:1020900041F38091830590918405DC01ED91FC91E1
:1020A0000284F385E02D0995F70181937F01EC15FA
:1020B000FD0511F76A817B81362F272F3E8B2D8BF3
:1020C0000C811D811027012710276E817F81562FDB
:1020D000472F5B8B4A8B2884398432242324322473
:1020E00059815C8B15CE80907B0590907C05A090EB
:1020F0007D05B0907E0520917F053091800540914F
:1021000081055091820546CE5E85523009F476C035
:10211000533009F48BC0B801110F880B990B0E9442
:10212000BC18A50194010E947119A70196010E9493
:1021300071192B013C0161E070E00E8402C0660F52
:10214000771F0A94E2F7072E000C880B990B0E9468
:10215000BC189B01AC01C301B2010E9471192B0193
:102160003C015F85523009F479C0533009F490C0C6
:10217000AA89BB89BD01BB0F880B990B0E94BC18B3
:10218000A50194010E947119A70196010E9471197D
:102190004B015C0161E070E00F8402C0660F771FA5
:1021A0000A94E2F7072E000C880B990B0E94BC18CA
:1021B0009B01AC01C501B4010E9471194B015C0186
:1021C000888999898230910509F47CC0039709F4C4
:1021D00093C0B101330C880B990B0E94BC182A855F
:1021E0003B854C855D850E947119A70196010E946F
:1021F00071196B017C0161E070E04DCEB80190E097
:1022000080E00E94BA1820E030E040E057E40E94ED
:10221000A717A50194010E947119A70196010E94B8
:10222000711920E030E040E850E497CFB80190E029
:1022300080E00E94BA1820E030E040E856E40E94B6
:10224000A717A50194010E947119A70196010E9488
:10225000711920E030E040E051E47FCFEA89FB894A
:10226000BF0190E080E00E94BA1820E030E040E03A
:1022700057E40E94A717A50194010E947119A701B4
:1022800096010E94711920E030E040E850E494CFBC
:102290002A893B89B90190E080E00E94BA1820E0C9
:1022A00030E040E856E40E94A717A50194010E947F
:1022B0007119A70196010E94711920E030E040E0F9
:1022C00051E47ACFB10190E080E00E94BA1820E09A
:1022D00030E040E057E40E94A7172A853B854C85F3
:1022E0005D850E947119A70196010E94711920E075
:1022F00030E040E850E4DFCDB10190E080E00E94A2
:10230000BA1820E030E040E856E40E94A7172A857A
:102310003B854C855D850E947119A70196010E943D
:10232000711920E030E040E051E4C5CDDF92EF923A
:10233000FF920F931F93CF93DF93F82ED62EE72EA5
:1023400080918305909184052091490531E0309377
:10235000500420934F0410924E0410924D0460E6F6
:1023600070E00E940E0B019749F08FEFDF91CF9143
:102370001F910F91FF90EF90DF900895809183055A
:1023800090918405DC01ED91FC910190F081E02DAC
:102390006E2D0995019749F78091830590918405E9
:1023A000DC01ED91FC910190F081E02D6D2D0995FE
:1023B0000197D9F60F2D10E0B801660F771F660F51
:1023C000771F80918305909184050E940E0BEC018C
:1023D000019759F680918305909184050E94240A03
:1023E0008111C3CF41E060914905809183059091AF
:1023F00084050E94420C813009F0B7CF809183059B
:1024000090918405DC01ED91FC910084F185E02D33
:102410000995892B09F4A9CF8091830590918405B2
:10242000DC01ED91FC910284F385E02D099584FD9A
:102430009DCF000F111FF801E35BFA4FD082E182BC
:1024400001C0CC0FFA94EAF7C09590914C05C923CE
:10245000C0934C058BCF9F92AF92BF92CF92DF92E9
:10246000EF92FF920F931F93CF93DF9300D0CDB7DE
:10247000DEB7E5E4F5E08CE084838FEF9FEF968391
:10248000858389E395E097AF86AF88E0878380EF07
:102490000E94140DF82E62E070E080E090E00E944F
:1024A0001202BE016F5F7F4F80E00E944F0D082F28
:1024B00069817A81606780E00E949611182F0295E9
:1024C0000170902F9195F4FAFF24F0F8F194092F00
:1024D0000F29BE016F5F7F4F82E00E944F0D982E43
:1024E00069817A816F71787F82E00E949611A82EAF
:1024F000BE016F5F7F4F82E00E944F0DB82E698151
:102500007A81636082E00E949611C82EBE016F5FDF
:102510007F4F82E00E944F0DD82E69817A816C61D5
:1025200082E00E949611E82EBE016F5F7F4F81E02E
:102530000E944F0DF82E69817A817B7F81E00E9495
:10254000961114FB992790F99195902B94FA2227D4
:1025500020F92195922BA4FA222720F92195922B7C
:10256000B4FA112710F91195912BC4FACC24C0F8B4
:10257000C1949C29D4FADD24D0F8D1949D29E4FAA1
:10258000EE24E0F8E1949E29F4FAFF24F0F8F194A7
:102590009F29829581708195892B0F900F90DF91F3
:1025A000CF911F910F91FF90EF90DF90CF90BF9050
:1025B000AF909F90089585ED8093BC0080919D0120
:1025C00090919E01A0919F01B091A0010796A11D3D
:1025D000B11D23E0B695A795979587952A95D1F7D4
:1025E0002091BC0024FD03C01092E60108954091A3
:1025F0009D0150919E0160919F017091A001452B1A
:10260000462B472B69F30097A105B10541F02AE25B
:102610002A95F1F700C00197A109B109E1CF809196
:102620009C010C947D091F920F920FB60F921124FA
:102630002F933F934F935F936F937F938F939F93CA
:10264000AF93BF93EF93FF9381E594E00E9407015E
:10265000FF91EF91BF91AF919F918F917F916F917A
:102660005F914F913F912F910F900FBE0F901F9050
:1026700018951F920F920FB60F9211242F938F93DC
:102680009F93EF93FF93E0916104F0916204808146
:10269000E0916704F091680482FD1BC090818091F5
:1026A0006A048F5F8F7320916B04821741F0E09171
:1026B0006A04F0E0EF5AFB4F958F80936A04FF9114
:1026C000EF919F918F912F910F900FBE0F901F90C0
:1026D00018958081F4CF1F920F920FB60F9211249C
:1026E0002F933F938F939F93AF93BF938091130446
:1026F00090911404A0911504B09116043091120425
:1027000023E0230F2D3758F50196A11DB11D20930D
:1027100012048093130490931404A0931504B093AF
:1027200016048091170490911804A0911904B09197
:102730001A040196A11DB11D8093170490931804EB
:10274000A0931904B0931A04BF91AF919F918F91F8
:102750003F912F910F900FBE0F901F90189526E874
:10276000230F0296A11DB11DD2CF1F920F920FB65B
:102770000F9211242F933F934F935F936F937F9307
:102780008F939F93AF93BF93EF93FF938091B90083
:10279000887F803609F44AC0F0F5883209F4A7C072
:1027A00018F5803109F49BC0B8F4882309F4F9C006
:1027B000883009F494C0FF91EF91BF91AF919F9140
:1027C0008F917F916F915F914F913F912F910F90DA
:1027D0000FBE0F901F901895883109F488C0803281
:1027E00051F78093E50114C0803409F49DC040F492
:1027F0008033B9F38833F9F68093E50185ECB0C0F6
:10280000803509F485C0883509F496C0883499F676
:102810000E94DB12D0CF883909F48CC038F5883794
:1028200029F050F4883611F0803729F683E0809340
:10283000E6011092E40157C0883809F47BC0803962
:1028400019F0803809F0B7CF8091E401803208F0A8
:1028500071C0E091E40181E08E0F8093E4018091EA
:10286000BB00F0E0EC53FE4F80833DC0803B39F06D
:10287000E0F4803A09F479C0883A09F09CCF84E00A
:102880008093E6011092C3011092C201E0911D04F1
:10289000F0911E0409958091C20181110FC081E061
:1028A0008093C2011092A20109C0803C09F4A6CF16
:1028B000883C09F4A3CF883B09F07DCFE091C301A8
:1028C00081E08E0F8093C301F0E0EE55FE4F8081D2
:1028D0008093BB009091C3018091C20129C0809177
:1028E0000B028093BB0085EC8093BC0064CF909179
:1028F0000A0280910902981758F5E0910A0281E0D6
:102900008E0F80930A02F0E0E751FE4F8081E9CFFD
:10291000E0910A0281E08E0F80930A028091BB0051
:10292000F0E0E751FE4F808390910A028091090206
:102930009817C8F285E8D8CFE0910A0281E08E0F9F
:1029400080930A028091BB00F0E0E751FE4F808344
:102950008091E80181115CCF81E08093E70184EAF6
:102960008093BC001092E60126CF85EC8093BC00DA
:102970001092E6018091E401803230F4E091E401AC
:10298000F0E0EC53FE4F10826091E40170E0E091C2
:102990001B04F0911C0484EC91E009951092E40171
:1029A0000ACF1092E50134CFE1E5F4E01382128200
:1029B00088EE93E0A0E0B0E084839583A683B7839C
:1029C00028E031E03183208325EC30E0358724870F
:1029D00024EC30E03787268720EC30E0318B208BE9
:1029E00021EC30E0338B228B22EC30E0358B248BD2
:1029F00026EC30E0378B268B118E128E138E148EC0
:102A0000EEEEF4E020E520831182E0EFF4E01582A1
:102A100016821186138642E050E060E070E0448741
:102A200055876687778713A215A614A62AE131E099
:102A300033A722A717A6E9E3F5E013821282848365
:102A40009583A683B78386E291E091838083E5E452
:102A5000F5E0148288E0878380E090E0A0EAB0E4AB
:102A600086879787A08BB18B80E090E0A0E8B0E4E8
:102A7000828B938BA48BB58B80E090E0A0E4B0E4D4
:102A8000868B978BA08FB18F80E090E0A0E2B0E4BE
:102A9000828F938FA48FB58F80E090E0A0E0B0E4A8
:102AA000868F978FA0A3B1A385E595E5A5EDBFE33C
:102AB00082A393A3A4A3B5A38BEA9AEAAAEABFE3ED
:102AC00086A397A3A0A7B1A780E090E0A0E8BFE30A
:102AD00082A793A7A4A7B5A789E394EBA8E4BEE3D4
:102AE00086A797A7A0ABB1AB81EC9AECA1EABEE3B5
:102AF00082AB93ABA4ABB5AB8AE999E9A9E1BEE39C
:102B000086AB97ABA0AFB1AF89ED9EECA7E7BEE374
:102B100082AF93AFA4AFB5AF0895789484B58260C7
:102B200084BD84B5816084BD85B5826085BD85B571
:102B3000816085BD80916E00816080936E001092EF
:102B4000810080918100826080938100809181006A
:102B500081608093810080918000816080938000FB
:102B60008091B10084608093B1008091B000816059
:102B70008093B00080917A00846080937A00809185
:102B80007A00826080937A0080917A0081608093DD
:102B90007A0080917A00806880937A001092C10058
:102BA000E0916104F091620482E08083E0915D0431
:102BB000F0915E041082E0915F04F091600480E186
:102BC000808310926904E0916504F091660486E0C8
:102BD0008083E0916304F09164048081806180834C
:102BE000E0916304F0916404808188608083E091C7
:102BF0006304F0916404808180688083E0916304C1
:102C0000F091640480818F7D808310922004109263
:102C10001F0410924E0410924D040E945F0987E831
:102C200090E090931E0480931D0488E890E09093B8
:102C30001C0480931B040E942B12882319F00E940D
:102C40002B12F9CF64E670E080E090E00E9412025F
:102C5000CAE0D0E0C12CD12C7601460157012601F3
:102C600037010E94080E20914104309142044091A6
:102C7000430450914404C301B2010E94A8172B01E0
:102C80003C01209145043091460440914704509105
:102C90004804C501B4010E94A8174B015C012091B2
:102CA000490430914A0440914B0450914C04C701AF
:102CB000B6010E94A8176B017C016AE070E080E019
:102CC00090E00E941202219761F620E030E040E29D
:102CD00051E4C301B2010E94191860932904709352
:102CE0002A0480932B0490932C0420E030E040E2EF
:102CF00051E4C501B4010E94191860932504709332
:102D00002604809327049093280420E030E040E2DA
:102D100051E4C701B6010E94191860932104709311
:102D20002204809323049093240480E491E00E9481
:102D3000150B6091290470912A0480912B049091C5
:102D40002C0442E00E94660B84E491E00E94150B83
:102D500060912504709126048091270490912804A5
:102D600042E00E94660B8AE491E00E94150B60919C
:102D7000210470912204809123049091240442E064
:102D80000E94660B80E591E00E94150B82E591E0C0
:102D90000E94150B81E7C82E8DE3D82E84ECE82E17
:102DA00081ECF82E9EEA892E97E4992E93E1A92EC4
:102DB00092ECB92E26EF422E28E2522E2CE0622E03
:102DC00020E4722EC0E0D0E00E94450260933904F6
:102DD00070933A0480933B0490933C04C092350472
:102DE000D0923604E0923704F09238048092310495
:102DF00090923204A0923304B092340440922D0495
:102E000050922E0460922F04709230040E94080E9B
:102E100020913504309136044091370450913804A4
:102E20006091410470914204809143049091440464
:102E30000E94A7176093290470932A0480932B049F
:102E400090932C042091310430913204409133044A
:102E50005091340460914504709146048091470478
:102E6000909148040E94A71760932504709326044C
:102E7000809327049093280420912D0430912E04F0
:102E800040912F04509130046091490470914A049C
:102E900080914B0490914C040E94A71760932104E9
:102EA0007093220480932304909324046091390446
:102EB00070913A0480913B0490913C044AE00E9456
:102EC000220B85E591E00E94150B89E591E00E94B7
:102ED000150B6091290470912A0480912B04909124
:102EE0002C0442E00E94660B89E591E00E94150BDC
:102EF0006091250470912604809127049091280404
:102F000042E00E94660B89E591E00E94150B6091FA
:102F1000210470912204809123049091240442E0C2
:102F20000E94660B82E591E00E94150B64E670E05A
:102F300080E090E00E941202209709F445CF0E94A1
:102F4000F300882309F440CF0E9400003DCF505881
:102F5000BB27AA270E94BF170C9432190E9424197C
:102F600038F00E942B1920F039F49F3F19F426F411
:102F70000C9421190EF4E095E7FB0C941B19E92F32
:102F80000E94431958F3BA1762077307840795071D
:102F900020F079F4A6F50C9465190EF4E0950B2E4B
:102FA000BA2FA02D0B01B90190010C01CA01A0019B
:102FB0001124FF27591B99F0593F50F4503E68F1F6
:102FC0001A16F040A22F232F342F4427585FF3CF37
:102FD000469537952795A795F0405395C9F77EF408
:102FE0001F16BA0B620B730B840BBAF09150A1F051
:102FF000FF0FBB1F661F771F881FC2F70EC0BA0FD7
:10300000621F731F841F48F4879577956795B7955E
:10301000F7959E3F08F0B0CF9395880F08F0992759
:10302000EE0F9795879508950E94F71808F481E0B0
:1030300008950E942D180C9432190E942B1958F0F3
:103040000E94241940F029F45F3F29F00C941B19C9
:1030500051110C9466190C9421190E94431968F3BC
:103060009923B1F3552391F3951B550BBB27AA2741
:1030700062177307840738F09F5F5F4F220F331F7B
:10308000441FAA1FA9F335D00E2E3AF0E0E832D043
:1030900091505040E695001CCAF72BD0FE2F29D046
:1030A000660F771F881FBB1F261737074807AB0718
:1030B000B0E809F0BB0B802DBF01FF2793585F4F8D
:1030C0003AF09E3F510578F00C941B190C94661948
:1030D0005F3FE4F3983ED4F3869577956795B7956F
:1030E000F7959F5FC9F7880F911D9695879597F97A
:1030F0000895E1E0660F771F881FBB1F62177307F3
:103100008407BA0720F0621B730B840BBA0BEE1F07
:1031100088F7E09508950E944B1988F09F5798F022
:10312000B92F9927B751B0F0E1F0660F771F881FCC
:10313000991F1AF0BA95C9F714C0B13091F00E94E6
:103140006519B1E008950C946519672F782F8827C9
:10315000B85F39F0B93FCCF3869577956795B3950D
:10316000D9F73EF490958095709561957F4F8F4F7C
:103170009F4F0895E89409C097FB3EF49095809581
:10318000709561957F4F8F4F9F4F9923A9F0F92F2D
:1031900096E9BB279395F695879577956795B795AB
:1031A000F111F8CFFAF4BB0F11F460FF1BC06F5F91
:1031B0007F4F8F4F9F4F16C0882311F096E911C0A3
:1031C000772321F09EE8872F762F05C0662371F0C4
:1031D00096E8862F70E060E02AF09A95660F771FD8
:1031E000881FDAF7880F9695879597F90895990FB4
:1031F0000008550FAA0BE0E8FEEF16161706E807C1
:10320000F907C0F012161306E407F50798F0621BE1
:10321000730B840B950B39F40A2661F0232B242BB6
:10322000252B21F408950A2609F4A140A6958FEFD5
:10323000811D811D089597F99F6780E870E060E027
:1032400008959FEF80EC089500240A94161617063F
:1032500018060906089500240A9412161306140687
:1032600005060895092E0394000C11F4882352F0EA
:10327000BB0F40F4BF2B11F460FF04C06F5F7F4FA2
:103280008F4F9F4F089557FD9058440F551F59F089
:103290005F3F71F04795880F97FB991F61F09F3F43
:1032A00079F087950895121613061406551FF2CF6C
:1032B0004695F1DF08C0161617061806991FF1CFBC
:1032C00086957105610508940895E894BB276627E3
:1032D0007727CB0197F908950E94F71808F48FEF2C
:1032E00008950E9484190C9432190E94241938F010
:1032F0000E942B1920F0952311F00C941B190C94AB
:10330000211911240C9466190E94431970F3959F9A
:10331000C1F3950F50E0551F629FF001729FBB27CC
:10332000F00DB11D639FAA27F00DB11DAA1F649F68
:103330006627B00DA11D661F829F2227B00DA11D1B
:10334000621F739FB00DA11D621F839FA00D611DA1
:10335000221F749F3327A00D611D231F849F600DC2
:10336000211D822F762F6A2F11249F5750409AF0EB
:10337000F1F088234AF0EE0FFF1FBB1F661F771F77
:10338000881F91505040A9F79E3F510580F00C9442
:103390001B190C9466195F3FE4F3983ED4F38695AD
:1033A00077956795B795F795E7959F5FC1F7FE2BE2
:1033B000880F911D9695879597F908950E94F718A3
:1033C000880B990B0895A1E21A2EAA1BBB1BFD01C5
:1033D0000DC0AA1FBB1FEE1FFF1FA217B307E407F4
:1033E000F50720F0A21BB30BE40BF50B661F771F4C
:1033F000881F991F1A9469F760957095809590952C
:103400009B01AC01BD01CF010895EE0FFF1F059098
:10341000F491E02D0994F894FFCFFFFFFFFF000027
:10342000000029018900B6007601E700C500D90037
:1034300000000000C207890068073709000000008B
:10344000F509C8090B0B9E09C109AE099F096E61F8
:103450006E00696E66006F76660078303D002C2045
:1034600079303D002C207A303D003B000D0A006D84
:06347000733A0020000089
:107E0000112484B714BE81FFF0D085E080938100F7
:107E100082E08093C00088E18093C10086E0809377
:107E2000C20080E18093C4008EE0C9D0259A86E02C
:107E300020E33CEF91E0309385002093840096BBD3
:107E4000B09BFECF1D9AA8958150A9F7CC24DD24C4
:107E500088248394B5E0AB2EA1E19A2EF3E0BF2EE7
:107E6000A2D0813461F49FD0082FAFD0023811F036
:107E7000013811F484E001C083E08DD089C08234E0
:107E800011F484E103C0853419F485E0A6D080C0E4
:107E9000853579F488D0E82EFF2485D0082F10E0AE
:107EA000102F00270E291F29000F111F8ED06801E7
:107EB0006FC0863521F484E090D080E0DECF843638
:107EC00009F040C070D06FD0082F6DD080E0C81688
:107ED00080E7D80618F4F601B7BEE895C0E0D1E017
:107EE00062D089930C17E1F7F0E0CF16F0E7DF06D8
:107EF00018F0F601B7BEE89568D007B600FCFDCFD4
:107F0000A601A0E0B1E02C9130E011968C91119780
:107F100090E0982F8827822B932B1296FA010C0160
:107F200087BEE89511244E5F5F4FF1E0A038BF0790
:107F300051F7F601A7BEE89507B600FCFDCF97BE46
:107F4000E89526C08437B1F42ED02DD0F82E2BD052
:107F50003CD0F601EF2C8F010F5F1F4F84911BD097
:107F6000EA94F801C1F70894C11CD11CFA94CF0C13
:107F7000D11C0EC0853739F428D08EE10CD085E9AC
:107F80000AD08FE07ACF813511F488E018D01DD067
:107F900080E101D065CF982F8091C00085FFFCCF94
:107FA0009093C60008958091C00087FFFCCF809118
:107FB000C00084FD01C0A8958091C6000895E0E648
:107FC000F0E098E1908380830895EDDF803219F02E
:107FD00088E0F5DFFFCF84E1DECF1F93182FE3DFCA
:107FE0001150E9F7F2DF1F91089580E0E8DFEE27F6
:047FF000FF270994CA
:027FFE00040479
:00000001FF
